:100000000C942A000C9447000C9447000C94470071
:100010000C9447000C9447000C9447000C94470044
:100020000C9447000C9447000C9447000C94470034
:100030000C9447000C9447000C9447000C94470024
:100040000C9447000C9447000C9447000C94470014
:100050000C94470011241FBECFE5D4E0DEBFCDBF16
:1000600010E0A0E6B0E0EEE9F5E002C005900D92E8
:10007000A037B107D9F710E0A0E7B0E001C01D92AA
:10008000AA3BB107E1F70E946E010C94CD020C94DB
:100090000000E82F882311F480E61BC0813011F4A2
:1000A00081E617C0823011F482E613C0833011F468
:1000B00083E60FC0843011F484E60BC0853011F460
:1000C00085E607C0863011F486E603C0873011F458
:1000D00087E687B9379A369A349BFECF349A84B133
:1000E0008093B900F0E085B1E058FF4F8083089518
:1000F0001F9360E070E011E0FB01E058FF4F2081AA
:10010000FB01EE0FFF1FDF01A05ABF4F4D915C9125
:10011000E856FF4F8081918130E0840F951F9695BE
:100120008795FB01E057FF4F2817390710F0108221
:1001300001C010836F5F7F4F68307105E9F68091D1
:100140009000813019F490E431E002C090E030E09A
:1001500080919100813011F4905830588091920034
:10016000813011F4905F305C80919300813011F008
:1001700020E002C0905E21E080919400813011F473
:100180009C5F2E5F80919500813011F4985F2C5F09
:1001900080919600813011F49F5F205F80919700DD
:1001A000813011F49E5F3E5F9093A8003093A900C8
:1001B0002093AA001F910895AF92BF92CF92DF9231
:1001C000EF92FF920F931F93CF93DF93E82E12BA13
:1001D00015BA882311F481E023C081E0E81611F4F8
:1001E00080E81EC0E2E0EE1611F480E419C0F3E0EE
:1001F000EF1611F481E00EC084E0E81611F482E0FD
:1002000009C0E5E0EE1611F484E004C0F6E0EF1654
:1002100019F480E182BB05C087E0E81611F482E0A2
:1002200085BBFF240E2D10E06801CC0CDD1CE6011F
:10023000C059DF4F70E8A72E70E0B72EA00EB11E98
:100240008E2D0E94490088819981F5012081820FBD
:10025000911D99838883F394FAE0FF1689F78881CA
:1002600099816AE070E00E94B902F801E857FF4FF7
:1002700060838081D601A05ABF4F2D913C91119788
:1002800090E08217930758F08081D601A856BF4F9F
:100290002D913C91119790E02817390728F480811F
:1002A00090E011969C938E93000F111F00591F4FE1
:1002B000F80111821082DF91CF911F910F91FF9071
:1002C000EF90DF90CF90BF90AF900895E199FECF6F
:1002D0009FBB8EBB6DBBE29AE19A08959F92AF924D
:1002E000BF92CF92DF92EF92FF920F931F93CF9323
:1002F000DF938FEF87BB83EC84BB87E181BB1ABAA6
:1003000081E087B987B187B987EA86B9369A789448
:100310001092AB002CED30E059C0E091AB00809121
:10032000AB00E199FECF90E001969FBB8EBBE09AB7
:100330008DB390E0F0E0EE0FFF1FE05AFF4F918386
:100340008083E091AB00F0E0EE0FFF1FE05AFF4F1B
:10035000808191818F3F910551F048F0E091AB0091
:10036000F0E0EE0FFF1FE05AFF4F31832083E09152
:10037000AB008091AB00E199FECF90E009969FBB66
:100380008EBBE09A8DB390E0F0E0EE0FFF1FE856D1
:10039000FF4F91838083E091AB00F0E0EE0FFF1FF1
:1003A000E856FF4F808191818F3F910551F048F0D1
:1003B000E091AB00F0E0EE0FFF1FE856FF4F3183F6
:1003C00020838091AB008F5F8093AB008091AB0066
:1003D000883008F4A2CF94ECC92E99E0D92E83EC92
:1003E000A82E07E1B02E18EAE12E11E6F12E09E160
:1003F00010E0CAEFD0E0992493941092AB0009C0AA
:100400008091AB000E9449008091AB008F5F809388
:10041000AB008091AB00883098F30E947800809107
:10042000A80088BB8091A90085BB8091AA0082BBEF
:10043000C6010197F1F78399E0CFA5BAB2BA15BA10
:1004400012BA88EA91E6F8013197F1F70197D9F7E6
:10045000D0936100C0936000D0936300C0936200AA
:10046000D0936500C0936400D0936700C09366008A
:10047000D0936900C0936800D0936B00C0936A006A
:10048000D0936D00C0936C00D0936F00C0936E004A
:10049000109299001092980010929B0010929A006E
:1004A00010929D0010929C0010929F0010929E004E
:1004B0001092A1001092A0001092A3001092A2002E
:1004C0001092A5001092A4001092A7001092A6000E
:1004D0001092AB000CC08091AB000E94DC00C70101
:1004E0000197F1F78091AB008F5F8093AB00809113
:1004F000AB00883080F38399EBCFA5BAB2BA15BAB6
:1005000012BA9092AB0022C08091AB00E091AB0098
:10051000F0E0EE0FFF1FE25AFF4F6081718190E023
:100520000E9466018091AB00E091AB00F0E0EE0F1D
:10053000FF1FEA56FF4F6081718190E008960E948C
:1005400066018091AB008F5F8093AB008091AB0020
:100550008930D0F288EA91E6F8013197F1F70197F6
:10056000D9F74BCFE199FECF9FBB8EBBE09A8DB3FD
:100570000895AA1BBB1B51E107C0AA1FBB1FA617EA
:10058000B70710F0A61BB70B881F991F5A95A9F73C
:0E05900080959095BC01CD010895F894FFCFA1
:10059E00FA00FA00FA00FA00FA00FA00FA00FA007D
:00000001FF
