:100000000C9446000C9465000C9465000C946500FB
:100010000C9465000C9465000C9465000C946500CC
:100020000C9465000C9465000C9467000C946500BA
:100030000C9465000C9465000C94E9090C9465001F
:100040000C9492020C9465000C9465000C9465006D
:100050000C9465000C9465000C9465000C9465008C
:100060000C9465000C9465000C9465000C9465007C
:100070000C9465000C9465000C9465000C9465006C
:100080000C9465000C9465000C94650011241FBE4F
:10009000CFEFD0E1DEBFCDBF12E0A0E0B1E0E0EEF7
:1000A000F0E400E00BBF02C007900D92A830B1074A
:1000B000D9F712E0A8E0B2E001C01D92AE38B10756
:1000C000E1F70E9494170C946E200C9400001F928C
:1000D0000F920FB60F9211242F933F938F939F93FC
:1000E00085E084BD8091160290911702019690934D
:1000F0001702809316028091140290911502892BA9
:10010000E9F120910C0230910D0280910A02909148
:100110000B022817390758F4909A80910C0290919D
:100120000D02019690930D0280930C0227C09098C7
:10013000209110023091110280910E0290910F02D5
:100140002817390750F480911002909111020196FE
:10015000909311028093100211C010920D02109220
:100160000C021092110210921002809114029091D0
:100170001502019790931502809314029F918F911D
:100180003F912F910F900FBE0F901F9018951BBAA3
:1001900018BA15BA13B813BE1EBC15BC17BEF89416
:1001A00008959C0110921702109216028091160277
:1001B0009091170282179307C8F3809116029091CD
:1001C00017022817390790F70895EF92FF920F93BF
:1001D0001F939FEF9ABB94BB92B91092610081E08C
:1001E00081BB1BBA12BA15BA13B883BF83E08EBDA8
:1001F00085BD8FE582BF9DBD85E08CBD84BD85E456
:1002000087BF789481E0E82EF12CF0921502E092FD
:10021000140208E210E010930B0200930A0280918E
:1002200010029091110290930F0280930E0280E5CC
:1002300090E00E94D100F0921502E0921402109317
:100240000B0200930A028091100290911102909388
:100250000F0280930E021F910F91FF90EF9008956F
:1002600088309105B9F189309105A8F48430910561
:1002700069F18530910548F48230910529F1833088
:10028000910518F5019779F51EC08630910501F1A9
:100290000797F8F41CC08C30910501F18D30910561
:1002A00030F48A309105C1F00B97B8F414C08E3049
:1002B0009105B1F08E30910590F08F30910589F065
:1002C000409789F40FC010981198129813981498B9
:1002D000159816981798109A119A129A139A149AB8
:1002E000159A169A179A08958AE090E00E94D10014
:1002F000819915C081E090E09093150280931402DB
:1003000082E390E090930B0280930A0280911002A6
:100310009091110290930F0280930E020CC0809175
:100320001A0290911B02019690931B0280931A026D
:1003300081E090E0DBCF819BFECF82E390E00E94E2
:10034000D1000895813011F4939A089593980895F7
:10035000909A08959098089550E050931502409314
:10036000140290930B0280930A02809110029091E4
:10037000110290930F0280930E0208958093080259
:100380000895929A0895929808952F923F924F92CD
:100390005F926F927F928F929F92AF92BF92CF9215
:1003A000DF92EF92FF920F931F93DF93CF93CDB71E
:1003B000DEB728970FB6F894DEBF0FBECDBF8B0116
:1003C0004A83A0E0B0E0BC01CD010E94A21D1B0148
:1003D0002C0120E030E04AE753E40E94C41B3B01BB
:1003E0004C010E94EE196B837C831982C801A0E046
:1003F000B0E08D839E83AF83B887929AC401B30126
:1004000020E030E040E85FE30E941E1D87FD23C02E
:10041000C401B30120E03FEF4FE757E40E94BE1C48
:10042000181624F08B819C819C0117C0C201B10178
:1004300020E030E040E251E40E94C41B0E94EE192B
:1004400006C089E190E00197F1F7615070406115B5
:100450007105B9F705C021E030E0C9010197F1F756
:1004600092986D817E818F8198850E94A21D5B018B
:100470006C0120E030E04AE753E40E94C41B7B019A
:100480008C0120E030E040E85FE30E941E1D8823DD
:100490001CF461E070E023C0C801B70120E03FEF29
:1004A0004FE757E40E94BE1C1816ACF4C601B50114
:1004B00020E030E040E251E40E94C41B0E94EE19AB
:1004C00006C089E190E00197F1F761507040611535
:1004D0007105B9F707C0C801B7010E94EE19CB0139
:1004E0000197F1F799819F5F9983AA81A91708F075
:1004F00084CF28960FB6F894DEBF0FBECDBFCF9144
:10050000DF911F910F91FF90EF90DF90CF90BF9000
:10051000AF909F908F907F906F905F904F903F90A3
:100520002F9008951F920F920FB60F9211242F93C0
:100530003F938F939F938FE582BF80911802909194
:100540001902019690931902809318028091180263
:1005500090911902893C910568F58091180290915B
:1005600019028135910510F483E033C0809118029F
:10057000909119028135910508F4B5C020911802B7
:100580003091190280911C0290E0805B9F4F82178E
:10059000930708F4A89820911802309119028091CD
:1005A0001D0290E0805B9F4F8217930708F09BC06D
:1005B000A99899C08091180290911902815991408F
:1005C00070F580911802909119028951914018F4A8
:1005D0008CE085BB88C080911802909119028951E6
:1005E000914008F480C02091180230911902809146
:1005F0001E0290E0885E9E4F8217930708F4AA9827
:10060000209118023091190280911F0290E0885EBB
:100610009E4F8217930708F066C0AB9864C0809124
:100620001802909119028955924060F58091180244
:1006300090911902815E914010F480E3CACF8091BD
:10064000180290911902815E914008F44CC02091EB
:100650001802309119028091200290E080529E4F42
:100660008217930708F4AC98209118023091190270
:100670008091210290E080529E4F8217930798F557
:10068000AD9831C080911802909119028152934027
:1006900050F58091180290911902895A924010F4F5
:1006A00080EC97CF8091180290911902895A92405C
:1006B000D0F020911802309119028091220290E02E
:1006C00088559D4F8217930708F4AE982091180221
:1006D000309119028091230290E088559D4F821736
:1006E000930708F4AF988091180290911902815DE8
:1006F000974020F010921902109218029F918F914A
:100700003F912F910F900FBE0F901F9018958093DF
:100710001C02089580931D02089580931E0208957F
:1007200080931F02089580932002089580932102F0
:1007300008958093220208958093230208958F9252
:100740009F92DF93CF93CDB7DEB7C401F2E0F09371
:100750008602E4E0E093870278E07093880260E12B
:100760006093890250E250938A0240E440938B02E6
:1007700030E830938C0221E020938D02F0931C022C
:10078000E0931D0270931E0260931F02509320029B
:10079000409321023093220220932302F0937602A9
:1007A000E0937702709378026093790250937A0213
:1007B00040937B0230937C0220937D020E94D10003
:1007C000CF91DF919F908F900895AF92CF92EF924B
:1007D0000F9390918602980F90937E0280918702EA
:1007E000860F80937F0280918802840F809380021D
:1007F00080918902820F8093810280918A02800F0A
:100800008093820280918B028E0D8093830280916F
:100810008C028C0D8093840280918D028A0D8093CE
:1008200085020F91EF90CF90AF900895AF92CF9245
:10083000EF920F9390918602980F90937E02809191
:100840008702860F80937F0280918802840F8093B5
:10085000800280918902820F8093810280918A02B6
:10086000800F8093820280918B028E0D8093830291
:1008700080918C028C0D8093840280918D028A0D70
:10088000809385020F91EF90CF90AF900895AF9233
:10089000CF92EF920F9390918602980F90937E02E1
:1008A00080918702860F80937F0280918802840F57
:1008B0008093800280918902820F809381028091CF
:1008C0008A02800F8093820280918B028E0D80932A
:1008D000830280918C028C0D8093840280918D0222
:1008E0008A0D809385020F91EF90CF90AF9008957D
:1008F000AF92CF92EF920F9390918602980F9093C0
:100900007E0280918702860F80937F028091880209
:10091000840F8093800280918902820F80938102EC
:1009200080918A02800F8093820280918B028E0DCB
:100930008093830280918C028C0D8093840280913D
:100940008D028A0D809385020F91EF90CF90AF902A
:1009500008951F93CF93DF93182FEB0180917602B8
:1009600080936E028091770280936F02809178026B
:1009700080937002809179028093710280917A0253
:100980008093720280917B028093730280917C023B
:100990008093740280917D0280937502812F90E094
:1009A0000E94D10090916E0280917E02891720F4FE
:1009B00080916E02815009C090916E0280917E02FA
:1009C000981728F480916E028F5F80936E02909149
:1009D0006F0280917F02891720F480916F0281500D
:1009E00009C090916F0280917F02981728F480913E
:1009F0006F028F5F80936F029091700280918002EE
:100A0000891720F480917002815009C09091700282
:100A100080918002981728F4809170028F5F8093F4
:100A200070029091710280918102891720F4809167
:100A30007102815009C090917102809181029817D2
:100A400028F4809171028F5F8093710290917202FD
:100A500080918202891720F480917202815009C02E
:100A60009091720280918202981728F4809172020C
:100A70008F5F809372029091730280918302891735
:100A800020F480917302815009C09091730280918B
:100A90008302981728F4809173028F5F809373020A
:100AA0009091740280918402891720F480917402DD
:100AB000815009C09091740280918402981728F4A3
:100AC000809174028F5F809374029091750280917F
:100AD0008502891720F480917502815009C0909198
:100AE000750280918502981728F4809175028F5FB6
:100AF0008093750280916E0280931C0280916F0238
:100B000080931D028091700280931E028091710279
:100B100080931F0280917202809320028091730261
:100B20008093210280917402809322028091750249
:100B30008093230290916E0280917E02981709F0B3
:100B40002DCF90916F0280917F02981709F026CFE8
:100B50009091700280918002981709F01FCF9091B8
:100B6000710280918102981709F018CF909172025A
:100B700080918202981709F011CF909173028091B1
:100B80008302981709F00ACF909174028091840231
:100B9000981709F003CF90917502809185029817FC
:100BA00009F0FCCECE010E94D10080917E0280939C
:100BB000760280917F0280937702809180028093F9
:100BC00078028091810280937902809182028093E1
:100BD0007A028091830280937B02809184028093C9
:100BE0007C028091850280937D02DF91CF911F91DD
:100BF00008951F93CF93DF93182FEB018091760216
:100C000080936E028091770280936F0280917802C8
:100C100080937002809179028093710280917A02B0
:100C20008093720280917B028093730280917C0298
:100C30008093740280917D0280937502812F90E0F1
:100C40000E94D10090916E0280917E02891720F45B
:100C500080916E02815009C090916E0280917E0257
:100C6000981728F480916E028F5F80936E029091A6
:100C70006F0280917F02891720F480916F0281506A
:100C800009C090916F0280917F02981728F480919B
:100C90006F028F5F80936F0290917002809180024B
:100CA000891720F480917002815009C090917002E0
:100CB00080918002981728F4809170028F5F809352
:100CC00070029091710280918102891720F48091C5
:100CD0007102815009C09091710280918102981730
:100CE00028F4809171028F5F80937102909172025B
:100CF00080918202891720F480917202815009C08C
:100D00009091720280918202981728F48091720269
:100D10008F5F809372029091730280918302891792
:100D200020F480917302815009C0909173028091E8
:100D30008302981728F4809173028F5F8093730267
:100D40009091740280918402891720F4809174023A
:100D5000815009C09091740280918402981728F400
:100D6000809174028F5F80937402909175028091DC
:100D70008502891720F480917502815009C09091F5
:100D8000750280918502981728F4809175028F5F13
:100D90008093750280916E0280931C0280916F0295
:100DA00080931D028091700280931E0280917102D7
:100DB00080931F02809172028093200280917302BF
:100DC00080932102809174028093220280917502A7
:100DD0008093230290916E0280917E02981709F011
:100DE0002DCF90916F0280917F02981709F026CF46
:100DF0009091700280918002981709F01FCF909116
:100E0000710280918102981709F018CF90917202B7
:100E100080918202981709F011CF9091730280910E
:100E20008302981709F00ACF90917402809184028E
:100E3000981709F003CF9091750280918502981759
:100E400009F0FCCECE010E94D10080917E028093F9
:100E5000760280917F028093770280918002809356
:100E6000780280918102809379028091820280933E
:100E70007A028091830280937B0280918402809326
:100E80007C028091850280937D02DF91CF911F913A
:100E900008951F93CF93DF93182FEB018091760273
:100EA00080936E028091770280936F028091780226
:100EB00080937002809179028093710280917A020E
:100EC0008093720280917B028093730280917C02F6
:100ED0008093740280917D0280937502812F90E04F
:100EE0000E94D10090916E0280917E02891720F4B9
:100EF00080916E02815009C090916E0280917E02B5
:100F0000981728F480916E028F5F80936E02909103
:100F10006F0280917F02891720F480916F028150C7
:100F200009C090916F0280917F02981728F48091F8
:100F30006F028F5F80936F029091700280918002A8
:100F4000891720F480917002815009C0909170023D
:100F500080918002981728F4809170028F5F8093AF
:100F600070029091710280918102891720F4809122
:100F70007102815009C0909171028091810298178D
:100F800028F4809171028F5F8093710290917202B8
:100F900080918202891720F480917202815009C0E9
:100FA0009091720280918202981728F480917202C7
:100FB0008F5F8093720290917302809183028917F0
:100FC00020F480917302815009C090917302809146
:100FD0008302981728F4809173028F5F80937302C5
:100FE0009091740280918402891720F48091740298
:100FF000815009C09091740280918402981728F45E
:10100000809174028F5F8093740290917502809139
:101010008502891720F480917502815009C0909152
:10102000750280918502981728F4809175028F5F70
:101030008093750280916E0280931C0280916F02F2
:1010400080931D028091700280931E028091710234
:1010500080931F028091720280932002809173021C
:101060008093210280917402809322028091750204
:101070008093230290916E0280917E02981709F06E
:101080002DCF90916F0280917F02981709F026CFA3
:101090009091700280918002981709F01FCF909173
:1010A000710280918102981709F018CF9091720215
:1010B00080918202981709F011CF9091730280916C
:1010C0008302981709F00ACF9091740280918402EC
:1010D000981709F003CF90917502809185029817B7
:1010E00009F0FCCECE010E94D10080917E02809357
:1010F000760280917F0280937702809180028093B4
:10110000780280918102809379028091820280939B
:101110007A028091830280937B0280918402809383
:101120007C028091850280937D02DF91CF911F9197
:1011300008951F93CF93DF93182FEB0180917602D0
:1011400080936E028091770280936F028091780283
:1011500080937002809179028093710280917A026B
:101160008093720280917B028093730280917C0253
:101170008093740280917D0280937502812F90E0AC
:101180000E94D10090916E0280917E02891720F416
:1011900080916E02815009C090916E0280917E0212
:1011A000981728F480916E028F5F80936E02909161
:1011B0006F0280917F02891720F480916F02815025
:1011C00009C090916F0280917F02981728F4809156
:1011D0006F028F5F80936F02909170028091800206
:1011E000891720F480917002815009C0909170029B
:1011F00080918002981728F4809170028F5F80930D
:1012000070029091710280918102891720F480917F
:101210007102815009C090917102809181029817EA
:1012200028F4809171028F5F809371029091720215
:1012300080918202891720F480917202815009C046
:101240009091720280918202981728F48091720224
:101250008F5F80937202909173028091830289174D
:1012600020F480917302815009C0909173028091A3
:101270008302981728F4809173028F5F8093730222
:101280009091740280918402891720F480917402F5
:10129000815009C09091740280918402981728F4BB
:1012A000809174028F5F8093740290917502809197
:1012B0008502891720F480917502815009C09091B0
:1012C000750280918502981728F4809175028F5FCE
:1012D0008093750280916E0280931C0280916F0250
:1012E00080931D028091700280931E028091710292
:1012F00080931F028091720280932002809173027A
:101300008093210280917402809322028091750261
:101310008093230290916E0280917E02981709F0CB
:101320002DCF90916F0280917F02981709F026CF00
:101330009091700280918002981709F01FCF9091D0
:10134000710280918102981709F018CF9091720272
:1013500080918202981709F011CF909173028091C9
:101360008302981709F00ACF909174028091840249
:10137000981709F003CF9091750280918502981714
:1013800009F0FCCECE010E94D10080917E028093B4
:10139000760280917F028093770280918002809311
:1013A00078028091810280937902809182028093F9
:1013B0007A028091830280937B02809184028093E1
:1013C0007C028091850280937D02DF91CF911F91F5
:1013D00008951F920F920FB60F9211242F933F93EF
:1013E0008F939F938FEF8DBD80EE8CBD2091240253
:1013F000309125028091260290912702821793074F
:10140000A0F080912A02813021F4DA988BB38360B6
:101410000EC080912A02823021F4D8988BB3866066
:1014200006C080912A02833019F48BB387608BBB8E
:101430002091240230912502809128029091290266
:1014400082179307A0F080912B02813021F4DD9860
:101450008BB388610EC080912B02823021F4DC981E
:101460008BB3886206C080912B02833019F48BB352
:1014700088638BBB8091240290912502C39718F05A
:1014800081E090E005C080912402909125020196B0
:1014900090932502809324029F918F913F912F91E9
:1014A0000F900FBE0F901F901895992787FD90956C
:1014B0009093270280932602772767FD709570939B
:1014C000290260932802809126029091270297FFBB
:1014D0000DC08091260290912702909581959F4F93
:1014E000909327028093260281E00AC08091260211
:1014F000909127021816190614F482E001C083E0C7
:1015000080932A02809128029091290297FF0DC0B2
:101510008091280290912902909581959F4F9093F8
:1015200029028093280281E00AC0809128029091CC
:1015300029021816190614F482E001C083E0809392
:101540002B0208950F931F938A010E94550AC80128
:101550000E94D1001F910F910895FF920F931F9346
:10156000CF93DF93F82E162F042FE9010E94550A1E
:1015700080B18023E9F7209739F011958F2D81955F
:10158000612FAE010E94A20A8091080290E0909320
:1015900015028093140284E190E090930B028093F3
:1015A0000A02809110029091110290930F02809391
:1015B0000E02DF91CF911F910F91FF900895FF923E
:1015C0000F931F93CF93DF93F82E162F042FE9016B
:1015D0000E94550A80B18023E9F780B18023E9F3A6
:1015E000209739F011958F2D8195612FAE010E94C2
:1015F000A20A8091080290E0909315028093140251
:1016000084E190E090930B0280930A028091100293
:101610009091110290930F0280930E02DF91CF916F
:101620001F910F91FF9008952F923F924F925F92DA
:101630006F927F928F929F92AF92BF92CF92DF92E2
:10164000EF92FF920F931F93DF93CF93CDB7DEB747
:10165000C454D0400FB6F894DEBF0FBECDBF982F54
:101660005901633008F016C171E0C72ED12C90E00B
:1016700026E130E0829FB001839F700D929F700D34
:101680001124645D7D4F25967FAF6EAF25976C5E0C
:101690007F4F7A836983042F10E02596EEADFFAD6E
:1016A00025977596FC83EB8325962EAD3FAD259748
:1016B0002F5F3F4F3E832D8325964EAD5FAD25971F
:1016C0004E5E5F4F58874F8325966EAD7FAD259751
:1016D0006D5E7F4F7A8769872BE030E0829F7001D3
:1016E000839FF00C929FF00C1124EE0CFF1C8EE2F5
:1016F00092E0E80EF91E2596EEADFFAD25973396E4
:10170000FC87EB8725962EAD3FAD2597205F3F4F99
:101710003E872D8725964EAD5FAD25974F5E5F4F77
:10172000588B4F8725966EAD7FAD25976C5F7F4FA9
:101730007A8B698B25968EAD9FAD259705969C8BF0
:101740008B8B2596EEADFFAD25973E96FE8BED8BF0
:101750005FE0252E312C25962EAD3FAD2597220E2C
:10176000331E46E0442E512C420E531E97E0692E44
:10177000712C620E731E8CE0882E912C820E931EAB
:1017800084C0049909C0059907C02596EEADFFAD48
:1017900025978285238555C0049907C02596EEAD0F
:1017A000FFAD2597808521854CC0059908C0F401BF
:1017B00080812596EEADFFAD2597258542C0039922
:1017C00006C0049904C0F2018081F30139C0059973
:1017D00007C0069905C0ED89FE898081F10130C0FE
:1017E000039906C0E989FA898081EB89FC8928C0C0
:1017F000069906C0ED85FE858081EF85F88920C0B9
:10180000029905C0F7018081EB85FC8519C0079915
:1018100006C0EF81F8858081E985FA8511C00199BC
:1018200008C02596EEADFFAD25978081ED81FE8144
:1018300007C0009923C0E981FA818081EB81FC8196
:10184000208190E0AC01049FC001059F900D149F82
:10185000900D112464E170E00E942420462F30E0B6
:10186000029FC001039F900D129F900D112464E10F
:1018700070E00E942420842F0E94550A81E090E0AD
:101880000E94D1000894C11CD11CAC14BD0408F006
:1018900078CF40C2862F8350823008F019C111E002
:1018A000C12ED12C892F90E026E130E0829FB0013B
:1018B000839F700D929F700D1124645D7D4F25965E
:1018C0007FAF6EAF25976C5E7F4F788F6F8B042F45
:1018D00010E02596EEADFFAD25977596FA8FE98F4E
:1018E00025962EAD3FAD25972E5E3F4F3C8F2B8F1B
:1018F00025964EAD5FAD25974D5E5F4F5E8F4D8F48
:1019000025966EAD7FAD2597605F7F4F78A36F8F73
:101910002596EEADFFAD25977196FAA3E9A325961E
:101920002EAD3FAD2597225F3F4F3CA32BA32596BD
:101930004EAD5FAD2597415F5F4F5EA34DA32596EA
:101940006EAD7FAD2597645F7F4F78A76FA3259617
:10195000EEADFFAD25973D96FAA7E9A725962EADEA
:101960003FAD2597265F3F4F3CA72BA7BBE02B2E13
:10197000312C25964EAD5FAD2597240E351EA8E07F
:101980004A2E512C440E551EF9E06F2E712C640E18
:10199000751EE6E08E2E912C840E951E2BE030E015
:1019A000829F7001839FF00C929FF00C1124EE0C2B
:1019B000FF1C6EE272E0E60EF71E85C0019907C0BB
:1019C0002596EEADFFAD25978081218158C0029903
:1019D00008C0F70180812596EEADFFAD25972381E4
:1019E0004EC0039907C02596EEADFFAD25978481C3
:1019F000258145C003990AC0049908C0F40180817B
:101A00002596EEADFFAD2597278139C0049904C016
:101A1000F2018081F30132C0049907C0059905C025
:101A2000EBA5FCA58081F10129C0059906C0EFA1B5
:101A3000F8A58081E9A5FAA521C0059908C00699F5
:101A400006C0EBA1FCA18081EDA1FEA117C0069903
:101A500006C0EF8DF8A18081E9A1FAA10FC0079916
:101A600006C0EB8DFC8D8081ED8DFE8D07C0009949
:101A700023C0EF89F88D8081E98DFA8D208190E077
:101A8000AC01049FC001059F900D149F900D11247F
:101A900064E170E00E942420462F30E0029FC001E4
:101AA000039F900D129F900D112464E170E00E943D
:101AB0002420842F0E94550A81E090E00E94D100EA
:101AC0000894C11CD11CAC14BD0408F077CF22C10E
:101AD0006550623008F01EC161E0C62ED12C892FFE
:101AE00090E026E130E0829FB001839F700D929FCD
:101AF000700D1124645D7D4F25967FAF6EAF2597E5
:101B0000042F10E06F5F7F4F7EA76DA72BE030E0C2
:101B1000829F7001839FF00C929FF00C1124EE0CB9
:101B2000FF1C8EE292E0E80EF91E2596EEADFFADA9
:101B300025973396F8ABEFA725962EAD3FAD2597A9
:101B40002C5F3F4F3AAB29AB25964EAD5FAD259745
:101B50004B5F5F4F5CAB4BAB25966EAD7FAD259772
:101B60006A5F7F4F7EAB6DAB25968EAD9FAD25979F
:101B7000079698AF8FAB2596EEADFFAD25973896BB
:101B8000FAAFE9AF25962EAD3FAD2597275F3F4FC2
:101B90003CAF2BAF25964EAD5FAD2597465F5F4FAF
:101BA0005EAF4DAF25966EAD7FAD2597655F7F4FDC
:101BB00021967FAF6EAF219725968EAD9FAD25976D
:101BC0000C9623969FAF8EAF23974DE0242E312C99
:101BD0002596EEADFFAD25972E0E3F1E3EE0432E1F
:101BE000512C4E0E5F1E2FE0622E712C6E0E7F1E4A
:101BF00090E1892E912C8E0E9F1E88C0009907C0FF
:101C00002596EEADFFAD2597848925895BC00799A0
:101C100007C02596EEADFFAD25978289238952C076
:101C2000069908C0F40180812596EEADFFAD259799
:101C3000218948C0059906C0069904C0F201808137
:101C4000F3013FC0059907C02396EEADFFAD239782
:101C50008081F10136C004990AC0059908C0EDAD34
:101C6000FEAD80812196EEADFFAD21972AC004998B
:101C700006C0E9ADFAAD8081EBADFCAD22C00399A1
:101C800008C0049906C0EDA9FEA98081EFA9F8ADAE
:101C900018C0039906C0E9A9FAA98081EBA9FCA99B
:101CA00010C0029905C0F7018081EFA5F8A909C00D
:101CB000019925C02596EEADFFAD25978081EDA554
:101CC000FEA5208190E0AC01049FC001059F900D0E
:101CD000149F900D112464E170E00E942420462F8F
:101CE00030E0029FC001039F900D129F900D1124C0
:101CF00064E170E00E942420842F0E94550A81E054
:101D000090E00E94D1000894C11CD11CAC14BD0409
:101D100008F074CFCC5BDF4F0FB6F894DEBF0FBE78
:101D2000CDBFCF91DF911F910F91FF90EF90DF908A
:101D3000CF90BF90AF909F908F907F906F905F906B
:101D40004F903F902F9008951F93CF93DF93982F3C
:101D5000162FFA01E90180E0692F412F9F010E94AF
:101D6000140B209729F0812F612FAE010E94A20A47
:101D7000DF91CF911F9108952F923F925F926F92C2
:101D80007F928F929F92AF92BF92CF92DF92EF920B
:101D9000FF920F931F93DF93CF93CDB7DEB72B97AF
:101DA0000FB6F894DEBF0FBECDBF6C01B62E542E19
:101DB000A22E009709F066C01B861A86C42EDD2469
:101DC000C7FCD094E22EFF24E7FCF094862E9924E1
:101DD00081E08822992480B190E08C219D21892B7B
:101DE00011F4E1E0EB8780B190E08E219F21892BF7
:101DF00011F4F1E0FA878B85813051F4EA85E13006
:101E000039F48114910411F412E003C011E001C00F
:101E100010E080E06B2D402F21E030E00E94140B99
:101E20001123C9F219861C828B2C9924F1E08F2290
:101E3000992425C080B190E08C219D21892B11F43B
:101E4000552011F481E0898780B190E08E219F2197
:101E5000892B11F4AA2011F4E1E0EC83F985F1302B
:101E600039F48C81813021F48114910409F012E05D
:101E700080E06B2D402F21E030E00E94140B1130E8
:101E8000C9F2CCC01886222433241B82642E772406
:101E900067FC7094822E992487FC9094E62EFF2490
:101EA000E1E0EE22FF2480B190E086219721892B8A
:101EB00011F4F1E0F88780B190E088219921892B15
:101EC00011F481E08B83E885E13051F4FB81F1303E
:101ED00039F4E114F10411F414E003C011E001C07D
:101EE00010E081E06B2D402F21E030E00E94140BC8
:101EF0002C143D0410F012E003C00894211C311C86
:101F0000C214D30418F41130A9F503C0112359F2F7
:101F1000FACF1F8210E080B190E086219721892BB3
:101F200011F4552011F481E08F8380B190E0882175
:101F30009921892B11F4AA2009F411E0EF81E130F5
:101F400011F41130B1F0C214D30458F081E06B2DBC
:101F5000402F21E030E00E94140B0894211C311C1A
:101F6000DACF82E06B2D402F21E030E00E94140B8D
:101F7000D2CF14E01E821A82EB2CFF24F1E0EF2274
:101F8000FF2423C080B190E086219721892B11F492
:101F900081E08E8380B190E088219921892B11F412
:101FA000E1E0EA83FE81F13049F48A81813031F445
:101FB000E114F10411F414E001C013E082E06B2D90
:101FC000402F21E030E00E94140B1230D9F21D8224
:101FD000198222C080B190E086219721892B11F4CB
:101FE000552011F4E1E0ED8380B190E08821992142
:101FF000892B11F4AA2011F4F1E0F9838D8181304D
:1020000021F4E981E13009F414E082E06B2D402FE6
:1020100021E030E00E94140B1330E1F280910802BD
:1020200090E0909315028093140284E190E09093E5
:102030000B0280930A0280911002909111029093FA
:102040000F0280930E022B960FB6F894DEBF0FBEE0
:10205000CDBFCF91DF911F910F91FF90EF90DF9057
:10206000CF90BF90AF909F908F907F906F905F9038
:102070003F902F9008958F92AF92CF92EF920F934F
:10208000DF93CF93CDB7DEB79A853B850E150CF065
:1020900010C1EC140CF0E2C0CA140CF0B4C0A814C7
:1020A0000CF086C089160CF058C093175CF580932D
:1020B0002C0230932D0260932E0230932F02409316
:1020C0003002309331022093320230933302009376
:1020D000340230933502E092360230933702C092D8
:1020E000380230933902A0923A0230933B02809238
:1020F0003C0230933D0290933E0230933F02309376
:102100004002B8C180932C0290932D0260932E025E
:1021100090932F0240933002909331022093320229
:10212000909333020093340290933502E09236028A
:1021300090933702C092380290933902A0923A02EB
:1021400090933B0280923C0290933D0290933E021A
:1021500090933F02909340028DC180932C02809215
:102160002D0260932E0280922F02409330028092C3
:102170003102209332028092330200933402809223
:102180003502E092360280923702C0923802809285
:102190003902A0923A0280923B0280923C028092E5
:1021A0003D0280923E0290933F028092400262C1C3
:1021B00080932C02A0922D0260932E02A0922F02F7
:1021C00040933002A092310220933202A092330257
:1021D00000933402A0923502E0923602A0923702B8
:1021E000C0923802A0923902A0923A02A0923B0219
:1021F000A0923C0280923D02A0923E0290933F0248
:10220000A092400237C180932C02C0922D026093AD
:102210002E02C0922F0240933002C09231022093CE
:102220003202C092330200933402C0923502E0922F
:102230003602C0923702C0923802C0923902C09270
:102240003A02A0923B02C0923C0280923D02C092B0
:102250003E0290933F02C09240020CC180932C0238
:10226000E0922D0260932E02E0922F024093300202
:10227000E092310220933202E09233020093340262
:10228000E0923502E0923602E0923702E0923802A4
:10229000C0923902E0923A02A0923B02E0923C02E4
:1022A00080923D02E0923E0290933F02E092400213
:1022B000E1C002170CF0B4C024170CF086C046171A
:1022C0000CF058C068175CF580932C0280932D02A7
:1022D00080932E0260932F0280933002409331024C
:1022E00080933202209333028093340200933502AC
:1022F00080933602E092370280933802C09239020E
:1023000080933A02A0923B0280933C0280923D026D
:1023100080933E0290933F0280934002ABC0809333
:102320002C0260932D0260932E0260932F02609323
:102330003002409331026093320220933302609363
:1023400034020093350260933602E09237026093C4
:102350003802C092390260933A02A0923B02609325
:102360003C0280923D0260933E0290933F02609354
:10237000400280C080932C0240932D0260932E0275
:1023800040932F0240933002409331024093320237
:102390002093330240933402009335024093360277
:1023A000E092370240933802C092390240933A02D9
:1023B000A0923B0240933C0280923D0240933E0239
:1023C00090933F024093400255C080932C0220938B
:1023D0002D0260932E0220932F024093300220930F
:1023E000310220933202209333022093340200936F
:1023F000350220933602E092370220933802C092D1
:10240000390220933A02A0923B0220933C02809230
:102410003D0220933E0290933F02209340022AC047
:1024200080932C0200932D0260932E0200932F02C2
:102430004093300200933102209332020093330222
:10244000009334020093350200933602E092370283
:1024500000933802C092390200933A02A0923B02E4
:1024600000933C0280923D0200933E0290933F0213
:102470000093400230934102CF91DF910F91EF9092
:10248000CF90AF908F9008958F92AF92CF92EF92AE
:102490000F93982FC62EA42E822E602F8E2D00D043
:1024A000EDB7FEB70183E282422F2A2D0C2DE92ED3
:1024B0000E943B100F900F900F91EF90CF90AF9034
:1024C0008F9008958F92AF92CF92EF920F93DF93F8
:1024D000CF93CDB7DEB79A853B850E150CF010C1B2
:1024E000EC140CF0E2C0CA140CF0B4C0A8140CF048
:1024F00086C089160CF058C093175CF58093420291
:102500003093430260934402309345024093460265
:1025100030934702209348023093490200934A02C5
:1025200030934B02E0924C0230934D02C0924E0227
:1025300030934F02A0925002309351028092520287
:1025400030935302909354023093550230935602C5
:10255000BBC18093420290934302609344029093E4
:10256000450240934602909347022093480290937D
:10257000490200934A0290934B02E0924C029093DE
:102580004D02C0924E0290934F02A092500290933F
:10259000510280925202909353029093540290936E
:1025A00055029093560290C180934202809243025A
:1025B0006093440280924502409346028092470213
:1025C000209348028092490200934A0280924B0273
:1025D000E0924C0280924D02C0924E0280924F02D5
:1025E000A092500280925102809252028092530235
:1025F00080925402909355028092560265C1809356
:102600004202A092430260934402A092450240938A
:102610004602A092470220934802A09249020093EA
:102620004A02A0924B02E0924C02A0924D02C0924C
:102630004E02A0924F02A0925002A0925102A0928C
:10264000520280925302A092540290935502A0929B
:1026500056023AC180934202C09243026093440200
:10266000C092450240934602C0924702209348021E
:10267000C092490200934A02C0924B02E0924C027F
:10268000C0924D02C0924E02C0924F02C0925002C0
:10269000A0925102C092520280925302C092540200
:1026A00090935502C09256020FC180934202E0926D
:1026B000430260934402E092450240934602E09256
:1026C000470220934802E092490200934A02E092B6
:1026D0004B02E0924C02E0924D02E0924E02C09218
:1026E0004F02E0925002A0925102E0925202809278
:1026F0005302E092540290935502E0925602E4C0D5
:10270000E0160CF0E3C002170CF0B4C024170CF074
:1027100086C046170CF058C068175CF580934202DB
:102720008093430280934402609345028093460263
:1027300040934702809348022093490280934A02C3
:1027400000934B0280934C02E0924D0280934E0224
:10275000C0924F0280935002A09251028093520285
:1027600080925302809354029093550280935602B4
:10277000ABC0809342026093430260934402609333
:1027800045026093460240934702609348022093BB
:10279000490260934A0200934B0260934C02E0921C
:1027A0004D0260934E02C0924F0260935002A0927D
:1027B00051026093520280925302609354029093AC
:1027C00055026093560280C08093420240934302B8
:1027D000609344024093450240934602409347026F
:1027E000409348022093490240934A0200934B02CF
:1027F00040934C02E0924D0240934E02C0924F0231
:1028000040935002A0925102409352028092530290
:1028100040935402909355024093560255C08093C2
:102820004202209343026093440220934502409366
:1028300046022093470220934802209349022093A6
:102840004A0200934B0220934C02E0924D022093E7
:102850004E02C0924F0220935002A0925102209348
:102860005202809253022093540290935502209377
:1028700056022AC0809342020093430260934402AE
:10288000009345024093460200934702209348027A
:102890000093490200934A0200934B0200934C02BA
:1028A000E0924D0200934E02C0924F0200935002FC
:1028B000A09251020093520280925302009354025C
:1028C000909355020093560230935702CF91DF91B7
:1028D0000F91EF90CF90AF908F9008958F92AF921D
:1028E000CF92EF920F93982FC62EA42E822E602F98
:1028F0008E2D00D0EDB7FEB70183E282422F2A2D44
:102900000C2DE92E0E9462120F900F900F91EF9004
:10291000CF90AF908F9008958F92AF92CF92EF9219
:102920000F93DF93CF93CDB7DEB79A853B850E1516
:102930000CF010C1EC140CF0E2C0CA140CF0B4C0DE
:10294000A8140CF086C089160CF058C093175CF5DB
:10295000809358023093590260935A0230935B027D
:1029600040935C0230935D0220935E0230935F02DD
:102970000093600230936102E0926202309363023E
:10298000C092640230936502A0926602309367029F
:10299000809268023093690290936A0230936B02CE
:1029A00030936C02BBC1809358029093590260939C
:1029B0005A0290935B0240935C0290935D022093D5
:1029C0005E0290935F020093600290936102E09236
:1029D000620290936302C092640290936502A09297
:1029E00066029093670280926802909369029093C6
:1029F0006A0290936B0290936C0290C1809358028C
:102A00008092590260935A0280925B0240935C026A
:102A100080925D0220935E0280925F0200936002CA
:102A200080926102E092620280926302C09264022C
:102A300080926502A092660280926702809268028C
:102A40008092690280926A0290936B0280926C027B
:102A500065C180935802A092590260935A02A092D5
:102A60005B0240935C02A0925D0220935E02A09202
:102A70005F0200936002A0926102E0926202A09263
:102A80006302C0926402A0926502A0926602A092C4
:102A90006702A092680280926902A0926A029093F3
:102AA0006B02A0926C023AC180935802C092590204
:102AB00060935A02C0925B0240935C02C0925D0236
:102AC00020935E02C0925F0200936002C092610296
:102AD000E0926202C0926302C0926402C0926502F8
:102AE000C0926602A0926702C09268028092690258
:102AF000C0926A0290936B02C0926C020FC18093E5
:102B00005802E092590260935A02E0925B024093AD
:102B10005C02E0925D0220935E02E0925F0200930D
:102B20006002E0926102E0926202E0926302E0924F
:102B30006402C0926502E0926602A0926702E0928F
:102B4000680280926902E0926A0290936B02E092BE
:102B50006C02E4C0E0160CF0E3C002170CF0B4C045
:102B600024170CF086C046170CF058C068175CF5A7
:102B7000809358028093590280935A0260935B02BB
:102B800080935C0240935D0280935E0220935F021B
:102B9000809360020093610280936202E09263027C
:102BA00080936402C092650280936602A0926702DD
:102BB000809368028092690280936A0290936B020C
:102BC00080936C02ABC0809358026093590260936B
:102BD0005A0260935B0260935C0240935D026093D3
:102BE0005E0220935F026093600200936102609333
:102BF0006202E092630260936402C0926502609395
:102C00006602A092670260936802809269026093F4
:102C10006A0290936B0260936C0280C080935802AA
:102C20004093590260935A0240935B0240935C02C6
:102C300040935D0240935E0220935F0240936002E6
:102C40000093610240936202E09263024093640247
:102C5000C092650240936602A092670240936802A8
:102C60008092690240936A0290936B0240936C02D7
:102C700055C0809358022093590260935A022093C2
:102C80005B0240935C0220935D0220935E022093DE
:102C90005F02209360020093610220936202E0923F
:102CA000630220936402C092650220936602A092A0
:102CB0006702209368028092690220936A029093CF
:102CC0006B0220936C022AC0809358020093590231
:102CD00060935A0200935B0240935C0200935D0292
:102CE00020935E0200935F020093600200936102F2
:102CF00000936202E092630200936402C092650254
:102D000000936602A09267020093680280926902B3
:102D100000936A0290936B0200936C0230936D02F1
:102D2000CF91DF910F91EF90CF90AF908F9008955A
:102D30008F92AF92CF92EF920F93982FC62EA42E20
:102D4000822E602F8E2D00D0EDB7FEB70183E28278
:102D5000422F2A2D0C2DE92E0E948C140F900F90DB
:102D60000F91EF90CF90AF908F9008958F92AF9288
:102D7000CF92EF920F93DF93CF93CDB7DEB78093CF
:102D80002C0260932D0240932E0220932F02009379
:102D90003002E0923102C0923202A092330280925D
:102DA00034028A85809335028B85809336028C8528
:102DB000809337028D85809338028E858093390207
:102DC0008F8580933A02888980933B02898980931A
:102DD0003C028A8980933D028B8980933E028C89D4
:102DE00080933F028D89809340028E8980934102B7
:102DF000CF91DF910F91EF90CF90AF908F9008958A
:102E00008F92AF92CF92EF920F93DF93CF93CDB784
:102E1000DEB78093420260934302409344022093C2
:102E2000450200934602E0924702C0924802A092F7
:102E3000490280924A028A8580934B028B85809357
:102E40004C028C8580934D028D8580934E028E8539
:102E500080934F028F85809350028889809351021E
:102E60008989809352028A89809353028B89809347
:102E700054028C89809355028D89809356028E89E5
:102E800080935702CF91DF910F91EF90CF90AF9049
:102E90008F9008958F92AF92CF92EF920F93DF931E
:102EA000CF93CDB7DEB78093580260935902409319
:102EB0005A0220935B0200935C02E0925D02C09292
:102EC0005E02A0925F02809260028A858093610216
:102ED0008B85809362028C85809363028D858093BD
:102EE00064028E85809365028F858093660288894F
:102EF000809367028989809368028A898093690236
:102F00008B8980936A028C8980936B028D89809370
:102F10006C028E8980936D02CF91DF910F91EF90BB
:102F2000CF90AF908F900895DF92EF92FF920F9322
:102F30001F93CF93DF930E94E50081E08093080206
:102F400080E060E041E050E00E94A20A0E9474012B
:102F500084E16EE04AE026E003E0EE24E3940E9480
:102F6000441284E16EE04AE026E00E946E148CE098
:102F70006AE046E023E000E0EE240E9498160E94FA
:102F800074018CE291E00E94D100E1E0EE2EF12C80
:102F9000F0921502E092140200E911E010930B0286
:102FA00000930A02809110029091110290930F02F7
:102FB00080930E0280E293E00E94D100F09215020D
:102FC000E092140210930B0200930A028091100207
:102FD0009091110290930F0280930E0280E293E091
:102FE0000E94D100F0921502E092140210930B029D
:102FF00000930A02809110029091110290930F02A7
:1030000080930E0280E293E00E94D100F0921502BC
:10301000E09214028CEB92E090930B0280930A02F0
:10302000809110029091110290930F0280930E02F2
:1030300080EB94E00E94D10081E06AE042E350E03E
:1030400020E030E00E94A40E81E064E142E350E021
:1030500020E030E00E94A40E80E090E061E042E0D9
:1030600021E003E2EE24FF240E94BC0E80911A02AC
:1030700090911B0265E070E00E941020892BC9F43A
:1030800080E090E063E040E021E00DE20E94BC0EB1
:1030900080E090E063E040E021E00E94BC0E83E02D
:1030A0006DE248EC50E020E030E00E94A40E83E0A6
:1030B0008DC080911A0290911B0265E070E00E9421
:1030C00010200197D9F480E090E061E042E021E037
:1030D00002E3EE24FF240E94BC0E80E090E063E057
:1030E00040E021E00DE20E94BC0E80E090E063E051
:1030F00040E021E00E94BC0E83E01CC080911A02D7
:1031000090911B0265E070E00E9410200297F9F494
:1031100080E090E061E042E020E002E3EE24FF2462
:103120000E94BC0E80E090E061E042E020E00E945E
:10313000BC0E81E06DE244E650E020E030E00E9409
:10314000A40E10E0DD2400E0C4E1D0E043C0809193
:103150001A0290911B0265E070E00E941020039714
:10316000D9F480E090E061E042E021E002E3EE2467
:10317000FF240E94BC0E80E090E065E042E020E089
:103180000DE20E94BC0E80E090E065E042E020E0AD
:103190000E94BC0E85E0CECF80E090E065E042E08A
:1031A00020E00DE2EE24FF240E94BC0E80E090E0BF
:1031B00065E042E020E00E94BC0E85E06DE248EC54
:1031C00050E020E030E00E94A40E85E06DE248EC83
:1031D00050E0B3CF019B11E0009902C0DD24D394ED
:1031E000013009F4B4C0112309F453C08AE06AE045
:1031F0000E94550A019904C00099FCCF11E054C007
:103200008091080290E09093150280931402D0936D
:103210000B02C0930A0280911002909111029093C8
:103220000F0280930E0287EF68E242E020E030E078
:103230000E94DF0A89EF6EE144E020E030E00E9466
:10324000DF0A80E06EE148E020E030E00E94AD0A55
:1032500080E090E062E040E021E00EE1EE24FF2417
:103260000E94BC0E88E267EF41E020E030E00E945F
:10327000DF0A8EE169EF40E820E030E00E94DF0ADB
:103280008EE160E040E420E030E00E94AD0A10E012
:1032900055C0DD2009F452C08AE06AE00E94550A58
:1032A000009904C00199FCCF01E049C08091080257
:1032B00090E09093150280931402D0930B02C09378
:1032C0000A02809110029091110290930F02809354
:1032D0000E0288E267EF41E020E030E00E94DF0A62
:1032E0008EE169EF40E820E030E00E94DF0A8EE1E5
:1032F00060E040E420E030E00E94AD0A80E090E031
:1033000062E042E020E00EE1EE24FF240E94BC0EC9
:1033100087EF68E242E020E030E00E94DF0A89EFB8
:103320006EE144E020E030E00E94DF0A80E06EE1E0
:1033300048E020E030E00E94AD0ADD2400E080E0BB
:1033400061E04EE121E030E00E94140B43CF80E0C9
:1033500060E048EC50E00E94A20A8091080290E0F0
:10336000909315028093140204E610E010930B0270
:1033700000930A02809110029091110290930F0223
:1033800080930E0288EC90E00E94D10081E090E0F2
:10339000909315028093140210930B0200930A027B
:1033A000809110029091110290930F0280930E026F
:1033B00088EC90E00E94D10080E060E048EB5BE0A8
:1033C0000E94A20A0E94C70080E090E0DF91CF91A6
:1033D0001F910F91FF90EF90DF900895EF92FF9271
:1033E0000F931F937B018C0120E030E040E05FE40D
:1033F0000E94EE1C88238CF0C801B70120E030E069
:1034000040E05FE40E94661B0E944E1D9B01AC01E0
:10341000205030404040504806C0C801B7010E94CB
:103420004E1D9B01AC01B901CA011F910F91FF9084
:10343000EF900895A0E0B0E0E0E2FAE10C943720CC
:10344000DC012B01FA019C91923008F439C1EB01A7
:103450008881823008F433C1943069F4843009F0F3
:103460002FC111969C9111978981981709F428C151
:10347000A0E0B1E025C1843009F421C18230A9F473
:10348000923009F01DC19A01AD0188E0EA0109906E
:10349000AE01E90109929E018150C1F7E2018981E3
:1034A00011969C918923818308C1923009F407C148
:1034B00012962D903C901397EB018A819B81149674
:1034C000AD90BD90CD90DC901797EC80FD800E8183
:1034D0001F819101281B390BB90137FF04C06627F2
:1034E0007727621B730B603271050CF061C01216F6
:1034F00013066CF537014801062E04C09694879494
:10350000779467940A94D2F721E030E040E050E0ED
:1035100004C0220F331F441F551F6A95D2F7215054
:103520003040404050402E213F214023512321155F
:1035300031054105510521F021E030E040E050E047
:1035400079018A01E628F728082919293CC0232B8C
:10355000D1F1260E371E35014601062E04C0969481
:103560008794779467940A94D2F721E030E040E0A2
:1035700050E004C0220F331F441F551F6A95D2F735
:1035800021503040404050402A213B214C215D21B8
:10359000211531054105510521F021E030E040E0E1
:1035A00050E059016A01A628B728C828D9280BC0BD
:1035B000821593052CF01C01AA24BB24650103C0CD
:1035C000EE24FF24870111969C91D20111968C91D3
:1035D000981709F445C0992339F0A80197012A19D1
:1035E0003B094C095D0906C0A60195012E193F094A
:1035F000400B510B57FD08C0118233822282248375
:103600003583468357831DC081E0818333822282C4
:1036100088279927DC01821B930BA40BB50B8483AD
:103620009583A683B7830DC0220F331F441F551FF8
:1036300024833583468357838281938101979383C3
:1036400082832481358146815781DA01C90101973E
:10365000A109B1098F5F9F4FAF4FBF4328F30BC044
:10366000918333822282EA0CFB1C0C1D1D1DE48217
:10367000F5820683178383E0808324813581468128
:10368000578157FF1AC0C901AA2797FDA095BA2FE5
:1036900081709070A070B0705695479537952795BA
:1036A000822B932BA42BB52B84839583A683B7837E
:1036B00082819381019693838283DF0101C0D201CD
:1036C000CD01CDB7DEB7E2E10C945320A0E2B0E02B
:1036D000ECE6FBE10C94432069837A838B839C8323
:1036E0002D833E834F835887E9E0EE2EF12CEC0EBC
:1036F000FD1ECE010196B7010E943F1F8E010F5E95
:103700001F4FCE010596B8010E943F1F8A8991E0A4
:1037100089278A8BC701B801AE01475E5F4F0E94BF
:103720001A1A0E946A1EA096E6E00C945F20A0E29E
:10373000B0E0EDE9FBE10C94432069837A838B834D
:103740009C832D833E834F835887F9E0EF2EF12C25
:10375000EC0EFD1ECE010196B7010E943F1F8E01A7
:103760000F5E1F4FCE010596B8010E943F1FC70193
:10377000B801AE01475E5F4F0E941A1A0E946A1E8E
:10378000A096E6E00C945F20A0E2B0E0EAECFBE15A
:103790000C94372069837A838B839C832D833E83AB
:1037A0004F835887CE010196BE01675F7F4F0E940D
:1037B0003F1FCE010596BE016F5E7F4F0E943F1FE7
:1037C0009985923088F089898230C8F0943019F454
:1037D000823051F404C0843029F4923081F480E0C6
:1037E00091E0C6C0923049F420E09A858A89981306
:1037F00021E02A87CE010996BBC0823049F420E03F
:103800009A858A89981321E02A8BCE014196B0C00F
:103810002D843E844F8458886D887E888F88988C4C
:10382000EE24FF248701AA24BB24650140E050E078
:1038300060E070E0E0E0F0E0C10181709070892B01
:10384000E9F0E60CF71C081D191D9A01AB012A0DC1
:103850003B1D4C1D5D1D80E090E0A0E0B0E0E61453
:10386000F7040805190520F481E090E0A0E0B0E03D
:10387000BA01A901480F591F6A1F7B1FAA0CBB1C64
:10388000CC1CDD1C97FE08C081E090E0A0E0B0E019
:10389000A82AB92ACA2ADB2A3196E032F10549F072
:1038A000660C771C881C991C56944794379427946F
:1038B000C3CFFA85EA892B893C898B859C85280FA3
:1038C000391F2E5F3F4F17C0CA0181709070892B3E
:1038D00061F016950795F794E79480E090E0A0E0FA
:1038E000B0E8E82AF92A0A2B1B2B7695679557959D
:1038F00047952F5F3F4F77FDE7CF0CC0440F551F13
:10390000661F771F17FD4160EE0CFF1C001F111F83
:1039100021503040403090E0590790E0690790E432
:10392000790760F32B8F3C8FDB01CA018F77907092
:10393000A070B07080349105A105B10561F447FD18
:103940000AC0E114F1040105110529F0405C5F4F44
:103950006F4F7F4F40781A8EFE1711F081E08A8FEB
:103960004D8F5E8F6F8F78A383E0898FCE0149964C
:103970000E946A1EA096E2E10C945320A8E1B0E0F8
:10398000E4ECFCE10C94432069837A838B839C8371
:103990002D833E834F83588789E0E82EF12CEC0E6F
:1039A000FD1ECE010196B7010E943F1F8E010F5EE2
:1039B0001F4FCE010596B8010E943F1F89858230B6
:1039C00040F08989823028F0C701B8010E94B71FF2
:1039D00001C08FEF6896E6E00C945F20A8E1B0E0AC
:1039E000E4EFFCE10C94432069837A838B839C830E
:1039F0002D833E834F83588789E0E82EF12CEC0E0F
:103A0000FD1ECE010196B7010E943F1F8E010F5E81
:103A10001F4FCE010596B8010E943F1F8985823055
:103A200040F08989823028F0C701B8010E94B71F91
:103A300001C08FEF6896E6E00C945F20A8E1B0E04B
:103A4000E4E2FDE10C94432069837A838B839C83B9
:103A50002D833E834F83588789E0E82EF12CEC0EAE
:103A6000FD1ECE010196B7010E943F1F8E010F5E21
:103A70001F4FCE010596B8010E943F1F89858230F5
:103A800040F08989823028F0C701B8010E94B71F31
:103A900001C081E06896E6E00C945F20ACE0B0E005
:103AA000E4E5FDE10C94472069837A838B839C8352
:103AB000CE010196BE016B5F7F4F0E943F1F8D813B
:103AC000823061F1823050F1843021F48E8188237C
:103AD00051F12EC02F81388537FD20C06E812F31E6
:103AE00031051CF06623F9F023C08EE190E0821BC3
:103AF000930B29853A854B855C8504C0569547957F
:103B0000379527958A95D2F76623B1F05095409561
:103B1000309521953F4F4F4F5F4F0EC020E030E072
:103B200040E050E009C02FEF3FEF4FEF5FE704C0E8
:103B300020E030E040E050E8B901CA012C96E2E014
:103B40000C946320A8E0B0E0E8EAFDE10C943F208B
:103B50007B018C01611571058105910519F482E0E5
:103B6000898360C083E089838EE1C82ED12CDC82FA
:103B7000CB82ED82FE820F831887C801B7010E94B5
:103B80001B1EFC013197F7FF3BC0222733272E1B5A
:103B90003F0B57016801022E04C0D694C794B79416
:103BA000A7940A94D2F740E050E060E070E081E032
:103BB00090E0A0E0B0E004C0880F991FAA1FBB1FCF
:103BC0002A95D2F70197A109B1098E219F21A0233F
:103BD000B1230097A105B10521F041E050E060E07C
:103BE00070E04A295B296C297D294D835E836F83B0
:103BF00078878EE190E08E1B9F0B9C838B8312C095
:103C0000309781F00E2E04C0EE0CFF1C001F111F18
:103C10000A94D2F7ED82FE820F831887CE1ADF0A4C
:103C2000DC82CB821A82CE0101960E946A1E2896FF
:103C3000EAE00C945B20EF92FF920F931F937B01BD
:103C40008C0180E0E81680E0F80681E0080780E05B
:103C5000180788F48FEFE816F1040105110531F01B
:103C600028F088E090E0A0E0B0E017C080E090E0AD
:103C7000A0E0B0E012C080E0E81680E0F80680E046
:103C8000080781E0180728F088E190E0A0E0B0E0A4
:103C900004C080E190E0A0E0B0E020E230E040E04D
:103CA00050E0281B390B4A0B5B0B04C01695079597
:103CB000F794E7948A95D2F7F701E85FFE4F808189
:103CC000281B310941095109C9011F910F91FF902A
:103CD000EF900895DF92EF92FF920F931F93FC01F4
:103CE000E480F58006811781D1808081823048F49C
:103CF00080E090E0A0E1B0E0E82AF92A0A2B1B2B33
:103D0000A5C0843009F49FC0823021F4EE24FF2442
:103D1000870105C0E114F1040105110519F4E0E083
:103D2000F0E096C0628173819FEF623879070CF0F2
:103D30005BC022E83FEF261B370B2A3131052CF000
:103D400020E030E040E050E02AC0B801A701022E98
:103D500004C076956795579547950A94D2F781E008
:103D600090E0A0E0B0E004C0880F991FAA1FBB1F1D
:103D70002A95D2F70197A109B1098E219F21A0238D
:103D8000B1230097A105B10521F081E090E0A0E00A
:103D9000B0E09A01AB01282B392B4A2B5B2BDA01BF
:103DA000C9018F779070A070B07080349105A10523
:103DB000B10539F427FF09C0205C3F4F4F4F5F4FDB
:103DC00004C0215C3F4F4F4F5F4FE0E0F0E02030F8
:103DD000A0E03A07A0E04A07A0E45A0710F0E1E0AB
:103DE000F0E079018A0127C06038710564F5FB01B4
:103DF000E158FF4FD801C7018F779070A070B07065
:103E000080349105A105B10539F4E7FE0DC080E4C9
:103E100090E0A0E0B0E004C08FE390E0A0E0B0E06C
:103E2000E80EF91E0A1F1B1F17FF05C01695079500
:103E3000F794E794319687E016950795F794E79401
:103E40008A95D1F705C0EE24FF248701EFEFF0E05B
:103E50006E2F679566276795902F9F77D794DD24FF
:103E6000D7948E2F8695492F462B582F5D29B70161
:103E7000CA011F910F91FF90EF90DF900895FC0110
:103E8000DB01408151812281622F6F7770E0221F18
:103E90002227221F9381892F880F822B282F30E021
:103EA000991F9927991F11969C93119721153105F8
:103EB000A9F5411551056105710511F482E037C07E
:103EC00082E89FEF13969C938E9312979A01AB0111
:103ED00067E0220F331F441F551F6A95D1F783E017
:103EE0008C930DC0220F331F441F551F12968D91C6
:103EF0009C911397019713969C938E931297203061
:103F000080E0380780E0480780E4580758F31496AB
:103F10002D933D934D935C93179708952F3F310553
:103F200079F4411551056105710519F484E08C930C
:103F3000089564FF03C081E08C9312C01C9210C0EE
:103F40002F57304013963C932E93129783E08C9317
:103F500087E0440F551F661F771F8A95D1F770645D
:103F600014964D935D936D937C93179708951F93CB
:103F7000DC01FB019C91923008F447C080818230C3
:103F800008F443C0943051F411961C91843099F593
:103F90008181682F70E0611B71093FC0843021F07E
:103FA000923031F48230B9F18181882389F12DC0BA
:103FB00011961C9111978230F1F081811817D9F474
:103FC00012962D913C9113978281938182179307CA
:103FD00094F028173907BCF014968D919D910D909F
:103FE000BC91A02D2481358146815781281739073E
:103FF0004A075B0718F4112341F00AC082179307A0
:10400000A407B50740F4112319F061E070E005C082
:104010006FEF7FEF02C060E070E0CB011F91089569
:10402000AA1BBB1B51E107C0AA1FBB1FA617B707DE
:1040300010F0A61BB70B881F991F5A95A9F78095FA
:104040009095BC01CD01089597FB092E07260AD053
:1040500077FD04D0E5DF06D000201AF47095619555
:104060007F4F0895F6F7909581959F4F08952F9271
:104070003F924F925F926F927F928F929F92AF92F8
:10408000BF92CF92DF92EF92FF920F931F93CF9345
:10409000DF93CDB7DEB7CA1BDB0B0FB6F894DEBFDC
:1040A0000FBECDBF09942A88398848885F846E8402
:1040B0007D848C849B84AA84B984C884DF80EE804C
:1040C000FD800C811B81AA81B981CE0FD11D0FB655
:1040D000F894DEBF0FBECDBFED010895F894FFCF79
:1040E00000000000000000000001020203030303BF
:1040F0000404040404040404050505050505050578
:104100000505050505050505060606060606060657
:10411000060606060606060606060606060606063F
:104120000606060606060606070707070707070727
:10413000070707070707070707070707070707070F
:1041400007070707070707070707070707070707FF
:1041500007070707070707070707070707070707EF
:1041600007070707070707070808080808080808D7
:1041700008080808080808080808080808080808BF
:1041800008080808080808080808080808080808AF
:10419000080808080808080808080808080808089F
:1041A000080808080808080808080808080808088F
:1041B000080808080808080808080808080808087F
:1041C000080808080808080808080808080808086F
:1041D000080808080808080808080808080808085F
:0841E000080808080808080897
:04000003000001CA2E
:00000001FF
